:100000000C94A7000C94C4000C94C4000C94C4007D
:100010000C94C4000C94C4000C945B020C94C400B7
:100020000C94C4000C94C4000C94C4000C94C40040
:100030000C94C4000C94C4000C94C4000C94C40030
:100040000C94C4000C94C4000C94C4000C94C40020
:100050000C94C40000407A10F35A00A0724E1809A4
:100060000010A5D4E80000E87648170000E40B541F
:10007000020000CA9A3B000000E1F50500008096EE
:100080009800000040420F000000A0860100000020
:10009000102700000000E8030000000064000000DA
:1000A00000000A00000000000100000000002C76A3
:1000B000D888DC674F0823DFC1DFAE59E1B1B796BE
:1000C000E5E3E453C63AE651997696E8E6C284261B
:1000D000EB898C9B62ED407C6FFCEFBC9C9F40F2F7
:1000E000BAA56FA5F490055A2AF75C936B6CF96773
:1000F0006DC11BFCE0E40D47FEF520E6B500D0ED38
:10010000902E0300943577050080841E080000209F
:100110004E0A000000C80C333333330F986E12833D
:100120001141EF8D2114893BE65516CFFEE6DB1811
:10013000D1844B381BF77C1D901DA4BBE4242032D6
:1001400084725E228100C9F124ECA1E53D271124CF
:100150001FBECFE5D8E0DEBFCDBF10E0A0E6B0E027
:10016000E6E7F2E102C005900D92AE38B107D9F78B
:1001700020E0AEE8B0E001C01D92A539B207E1F77A
:100180000E94A4020C9439090C940000CF93C82F4C
:1001900061E089E00E94C10360E08AE00E94C1033F
:1001A000C4FF05C061E084E00E94C10304C060E0B8
:1001B00084E00E94C103C5FF05C061E085E00E94A4
:1001C000C10304C060E085E00E94C103C6FF05C012
:1001D00061E086E00E94C10304C060E086E00E9406
:1001E000C103CC232CF461E087E00E94C10304C06A
:1001F00060E087E00E94C10361E08BE00E94C103E0
:100200008FE99FE00197F1F700C0000060E08BE00C
:100210000E94C1038FE99FE00197F1F700C0000041
:10022000C0FF05C061E084E00E94C10304C060E03B
:1002300084E00E94C103C1FF05C061E085E00E9427
:10024000C10304C060E085E00E94C103C2FF05C095
:1002500061E086E00E94C10304C060E086E00E9485
:10026000C103C3FF05C061E087E00E94C10304C071
:1002700060E087E00E94C10361E08BE00E94C1035F
:100280008FE99FE00197F1F700C0000060E08BE08C
:100290000E94C1038FE99FE00197F1F700C00000C1
:1002A000CF910895CF93C82F60E089E00E94C103E9
:1002B00060E08AE00E94C103C4FF05C061E084E001
:1002C0000E94C10304C060E084E00E94C103C5FF36
:1002D00005C061E085E00E94C10304C060E085E0E4
:1002E0000E94C103C6FF05C061E086E00E94C10311
:1002F00004C060E086E00E94C103CC232CF461E0DE
:1003000087E00E94C10304C060E087E00E94C1034F
:1003100061E08BE00E94C1038FE99FE00197F1F754
:1003200000C0000060E08BE00E94C1038FE99FE005
:100330000197F1F700C00000C0FF05C061E084E054
:100340000E94C10304C060E084E00E94C103C1FFB9
:1003500005C061E085E00E94C10304C060E085E063
:100360000E94C103C2FF05C061E086E00E94C10394
:1003700004C060E086E00E94C103C3FF05C061E0E5
:1003800087E00E94C10304C060E087E00E94C103CF
:1003900061E08BE00E94C1038FE99FE00197F1F7D4
:1003A00000C0000060E08BE00E94C1038FE99FE085
:1003B0000197F1F700C00000CF9108952FE785EB7A
:1003C00091E0215080409040E1F700C0000083E3BD
:1003D0000E9452018FE39FE10197F1F700C00000F6
:1003E00082E30E9452018FE39FE10197F1F700C081
:1003F000000088E20E9452018FE39FE10197F1F72C
:1004000000C000008CE00E9452018FE39FE1019741
:10041000F1F700C0000086E00E9452018FE39FE1E7
:100420000197F1F700C0000081E00E9452018FE3C4
:100430009FE10197F1F700C0000008950F931F930B
:10044000CF938C01C0E003C00E94C600CF5FF801CB
:10045000EC0FF11D80818111F7CFCF911F910F918A
:100460000895882319F0813021F006C080E8860FB6
:1004700004C080EC860F01C080E80E9452010895FC
:100480000F931F93CF938B010E9452018FE99FE03E
:100490000197F1F700C00000C0E007C0F801EC0FC1
:1004A000F11D80810E94C600CF5FC830B8F3CF91A4
:1004B0001F910F9108951F920F920FB60F92112462
:1004C0002F938F939F9380918E008F5F80938E00E8
:1004D000813069F487B590E0982F882726B5822B64
:1004E00090939400809393008EB58F7B8EBD809106
:1004F0008E00823069F487B590E0982F882726B562
:10050000822B90939200809391008EB580648EBD73
:1005100080918E00833081F487B590E0982F8827F2
:1005200026B5822B9093900080938F008EB58F7BA1
:100530008EBD89B78F7D89BF9F918F912F910F902D
:100540000FBE0F901F901895CF93DF93CDB7DEB7F6
:1005500069970FB6F894DEBF0FBECDBF0E94B803F7
:100560000E94DE0168E770E080E40E94400260E7DC
:1005700070E088E40E94400268E670E080E50E9436
:10058000400260E670E088E50E9440020E94A704F5
:1005900088EC0E94CB040E9487040E94A3040E945E
:1005A000830480E390E09A838983FE01339628E0F8
:1005B000DF011D922A95E9F79C878B873A968DE09B
:1005C000DF011D928A95E9F7F12CE12C80918E00D4
:1005D000833009F088C0C0909300D09094000091BF
:1005E000910010919200C016D10608F07CC0609175
:1005F0008F00709190000617170708F074C06C19EF
:100600007D0980E090E00E9475054B015C019B0133
:10061000AC0160E074E284E79BE40E94CD0420E03A
:1006200030E04AE754E40E94CD042B013C01B801BC
:100630006C197D0980E090E00E947505A501940188
:100640000E94CD0420E030E048EC52E40E94030612
:100650004B015C018E010F5F1F4F21E030E042E053
:1006600050E0C301B2010E947006C501B4010E94AE
:100670003F05DC01CB014AE050E0BE01655F7F4FE2
:100680000E94900610928E0060E080E00E9431028D
:1006900080E890E00E941E0262E080E00E94310249
:1006A000C8010E941E0266E080E00E94310284E8D8
:1006B00090E00E941E026AE080E00E94310288E819
:1006C00090E00E941E026CE080E00E943102CE01A8
:1006D0000B960E941E026FE080E00E9431028CE8BF
:1006E00090E00E941E020E94A3048FE10E944A042F
:1006F000811116C0E11008C06F2D81E00E94310207
:1007000083E00E94C6002AC0B1E0EB1223C06F2D27
:1007100081E00E94310280E00E94C600E12C1EC0F0
:100720008FE10E944A048130C9F4E11009C06F2DA5
:100730000E94310281E00E94C600EE24E3940EC0C4
:1007400081E0E81209C06F2D0E94310282E00E9410
:10075000C60004C0E12C02C0EE24E394AFE0FA121C
:1007600001C0F12CBFE0BF1508F430CFF3942ECFB9
:1007700080EF8ABB8EE087BB84E884BB88E881BBBE
:100780000895883000F5662381F0613009F081C05A
:100790004BB321E030E0B90102C0660F771F8A95A4
:1007A000E2F7CB01842B8BBB08954BB321E030E003
:1007B000B90102C0660F771F8A95E2F7CB018095D9
:1007C00084238BBB0895803108F58850662381F01F
:1007D000613009F05EC048B321E030E0B90102C0E9
:1007E000660F771F8A95E2F7CB01842B88BB0895AB
:1007F00048B321E030E0B90102C0660F771F8A9547
:10080000E2F7CB018095842388BB0895883100F5F9
:100810008051662379F06130E1F545B321E030E0A5
:10082000B90102C0660F771F8A95E2F7CB01842BCE
:1008300085BB089545B321E030E0B90102C0660FE1
:10084000771F8A95E2F7CB018095842385BB0895B5
:100850008032F8F48851662379F06130D1F442B3E4
:1008600021E030E0B90102C0660F771F8A95E2F7F8
:10087000CB01842B82BB089542B321E030E0B90163
:1008800002C0660F771F8A95E2F7CB01809584231B
:1008900082BB0895883058F429B330E0A90102C022
:1008A000559547958A95E2F7CA0181700895803180
:1008B00060F428EF280F96B3892F90E002C0959539
:1008C00087952A95E2F781700895883160F420EFCA
:1008D000280F93B3892F90E002C0959587952A95AC
:1008E000E2F781700895803260F428EE280F90B30B
:1008F000892F90E002C0959587952A95E2F781703F
:10090000089580E008958FB780688FBF08958FB5F0
:100910008E7F8FBD8FB58D7F8FBD8EB5877F8EBD4E
:100920008EB58F7E8EBD88B18B7F88B98EB5806481
:100930008EBD8EB581608EBD8EB58D7F8EBD8EB520
:1009400084608EBD089589B7806289BF089589B794
:100950008F7B89BF89B78F7789BF88B7806488BF4D
:1009600088B7806888BF14BC13BC85B5806485BD1A
:1009700085B5886085BD85B58F7E85BD85B580626E
:1009800085BD85B58E7F85BD85B5826085BD85B504
:100990008B7F85BD089583BD08950E94E1040C946A
:1009A000C9050E94C20558F00E94BB0540F029F419
:1009B0005F3F29F00C94B20551110C94FD050C9485
:1009C000B8050E94DA0568F39923B1F3552391F332
:1009D000951B550BBB27AA2762177307840738F0AE
:1009E0009F5F5F4F220F331F441FAA1FA9F335D00B
:1009F0000E2E3AF0E0E832D091505040E695001CBF
:100A0000CAF72BD0FE2F29D0660F771F881FBB1F78
:100A1000261737074807AB07B0E809F0BB0B802D56
:100A2000BF01FF2793585F4F3AF09E3F510578F082
:100A30000C94B2050C94FD055F3FE4F3983ED4F3AB
:100A4000869577956795B795F7959F5FC9F7880F56
:100A5000911D9695879597F90895E1E0660F771FA8
:100A6000881FBB1F621773078407BA0720F0621B39
:100A7000730B840BBA0BEE1F88F7E09508950E9464
:100A800046056894B1110C94FD0508950E94E20595
:100A900088F09F5798F0B92F9927B751B0F0E1F03F
:100AA000660F771F881F991F1AF0BA95C9F714C0EF
:100AB000B13091F00E94FC05B1E008950C94FC0562
:100AC000672F782F8827B85F39F0B93FCCF3869528
:100AD00077956795B395D9F73EF490958095709585
:100AE00061957F4F8F4F9F4F0895E89409C097FB02
:100AF0003EF490958095709561957F4F8F4F9F4FF5
:100B00009923A9F0F92F96E9BB279395F695879538
:100B100077956795B795F111F8CFFAF4BB0F11F4FB
:100B200060FF1BC06F5F7F4F8F4F9F4F16C08823A2
:100B300011F096E911C0772321F09EE8872F762FD8
:100B400005C0662371F096E8862F70E060E02AF019
:100B50009A95660F771F881FDAF7880F9695879505
:100B600097F9089597F99F6780E870E060E008952D
:100B70009FEF80EC089500240A94161617061806B5
:100B80000906089500240A94121613061406050691
:100B90000895092E0394000C11F4882352F0BB0F22
:100BA00040F4BF2B11F460FF04C06F5F7F4F8F4F85
:100BB0009F4F089557FD9058440F551F59F05F3FC0
:100BC00071F04795880F97FB991F61F09F3F79F06F
:100BD00087950895121613061406551FF2CF4695F1
:100BE000F1DF08C0161617061806991FF1CF869573
:100BF0007105610508940895E894BB276627772757
:100C0000CB0197F908950E9416060C94C9050E941D
:100C1000BB0538F00E94C20520F0952311F00C941A
:100C2000B2050C94B80511240C94FD050E94DA0558
:100C300070F3959FC1F3950F50E0551F629FF0012F
:100C4000729FBB27F00DB11D639FAA27F00DB11D48
:100C5000AA1F649F6627B00DA11D661F829F2227D1
:100C6000B00DA11D621F739FB00DA11D621F839F58
:100C7000A00D611D221F749F3327A00D611D231F2E
:100C8000849F600D211D822F762F6A2F11249F577C
:100C900050409AF0F1F088234AF0EE0FFF1FBB1F7F
:100CA000661F771F881F91505040A9F79E3F51053E
:100CB00080F00C94B2050C94FD055F3FE4F3983E80
:100CC000D4F3869577956795B795F795E7959F5FE8
:100CD000C1F7FE2B880F911D9695879597F908957A
:100CE000EF920F931F93CF93DF93E80147FD02C06C
:100CF00034E001C034E1042E000C550B57FF03C053
:100D0000519541955109E32E022F242FAE010E94E7
:100D1000C006CE01DF91CF911F910F91EF90089502
:100D20004532510520F4423010F00C949B06FB0133
:100D30001082CB010895BB274A3031F4992322F465
:100D4000BDE2909581959F4F0C94A706BB27FB01B0
:100D50005527AA27880F991FAA1FA41710F0A41BB4
:100D600083955051B9F7A05DAA3308F0A95DA1930E
:100D7000009779F7B111B1931192CB010C94F2085D
:100D8000A9E0B0E0E6ECF6E00C9408096A01122F45
:100D9000B02E2BE3201720F0FF24F394F00E02C0B6
:100DA0002CE3F22E0F2D27E0AE014F5F5F4F0E9424
:100DB0001A08BC014981842F8970813031F0E1FC2F
:100DC00006C0E0FE06C090E205C09DE203C09BE2C3
:100DD00001C090E05E2D507143FF3CC0911102C0F4
:100DE00083E001C084E0811718F4212F281B01C083
:100DF00020E051110BC0F601822F30E2882319F058
:100E000031938150FBCFC20ED11C20E0992329F0F1
:100E1000D6019C93F60131966F01C6010396E2FE5E
:100E20000AC03EE4D6013C9341E411964C931197DD
:100E300012963C9306C03EE6F601308341E64183BC
:100E40003283FC01322F40E2332309F442C0419344
:100E50003150FACF42FF44C0911102C083E001C07B
:100E600084E0811718F4212F281B01C020E05111C4
:100E70000BC0F601822F30E2882319F031938150A4
:100E8000FBCFC20ED11C20E0992329F0D6019C9300
:100E9000F60131966F01C6010396E2FE0BC039E4FC
:100EA000D6013C933EE411963C93119736E412969A
:100EB0003C9307C039E6F60130833EE6318336E6DF
:100EC0003283FC01322F40E2332319F04193315039
:100ED000FBCFFC01E20FF11D10828EEF9FEFA6C049
:100EE00021E030E0911102C020E030E01616170634
:100EF0001CF4FB01319602C0E1E0F0E02E0F3F1F31
:100F0000BB2021F0EB2DF0E0319602C0E0E0F0E0F4
:100F10002E0F3F1FE12FF0E02E173F071CF4121B8E
:100F2000212F01C020E08E2D887159F4F601822F07
:100F300030E2882319F031938150FBCFC20ED11CCF
:100F400020E0992329F0D6019C93F60131966F0198
:100F500051110BC0F601822F90E3882319F0919371
:100F60008150FBCFC20ED11C20E00F2D060F9A81BD
:100F7000342F307144FF03C0913309F4015010162F
:100F800024F4093018F008E001C001E0AB0177FF5C
:100F900002C040E050E0FB01E41BF50BA1E0B0E033
:100FA000AC0FBD1FEA0FFB1F8EE2A82E4B01801A6B
:100FB00091080B2D10E01195019511094F3FBFEFDE
:100FC0005B0721F4D601AC9211966D016417750789
:100FD0002CF08416950614F4818101C080E3415001
:100FE00051093196D60111967D014017510724F021
:100FF000D6018C936701E2CF6417750739F49633F5
:1010000020F4953319F4311101C081E3F601808396
:10101000F701822F90E2882319F091938150FBCF42
:10102000F701E20FF11D108280E090E02996ECE0DC
:101030000C942409283008F027E03327DA01990FAF
:10104000311D87FD916000966105710539F43260AC
:101050002E5F3D9330E32A95E1F708959F3F30F0EE
:1010600080387105610509F03C5F3C5F3D9391302C
:1010700008F08068911DDF93CF931F930F93FF9229
:10108000EF92192F987F9695E92F96959695E90FEF
:10109000FF27E255FF4F99273327EE24FF24A701AE
:1010A000E70105900894079428F4360FE71EF81E10
:1010B000491F511D660F771F881F991F0694A1F7BE
:1010C0000590079428F4E70EF81E491F561FC11D0E
:1010D000770F881F991F661F0694A1F70590079444
:1010E00028F4F80E491F561FC71FD11D880F991FDE
:1010F000661F771F0694A1F70590079420F4490F07
:10110000561FC71FD81F990F661F771F881F069489
:10111000A9F784911095177041F0D695C79557950A
:101120004795F794E7941A95C1F7E4E5F0E06894E1
:101130001590159135916591959105907FE2739584
:10114000E118F10A430B560BC90BD009C0F7E10CAB
:10115000F11E431F561FC91FD01D7EF4703311F4BA
:101160008A95E6CFE894015030F0080F0AF4002782
:10117000021708F4202F2395022F7A3328F079E301
:101180007D932A95E9F710C07D932A9589F60694F8
:1011900097956795379517951794E118F10A430BC2
:1011A000560BC90BD00998F023957E9173957A332D
:1011B00008F070E37C932013B8F77E9170617D9303
:1011C00030F0839571E37D9370E32A95E1F7112464
:1011D000EF90FF900F911F91CF91DF91992787FD9D
:1011E00090950895DC01FC01672F71917723E1F759
:1011F000329704C07C916D9370836291AE17BF07E4
:10120000C8F308952F923F924F925F926F927F9210
:101210008F929F92AF92BF92CF92DF92EF92FF9206
:101220000F931F93CF93DF93CDB7DEB7CA1BDB0BB2
:101230000FB6F894DEBF0FBECDBF09942A88398857
:1012400048885F846E847D848C849B84AA84B9845E
:10125000C884DF80EE80FD800C811B81AA81B9816A
:10126000CE0FD11D0FB6F894DEBF0FBECDBFED017E
:061270000895F894FFCF81
:10127600000000000000001F1F000000000000002A
:10128600070404040404041C1C04040404040407E2
:0E129600463A20006B487A00443A20002500BA
:00000001FF
